{
  "contractName": "DigiPets",
  "abi": [
    {
      "inputs": [],
      "stateMutability": "nonpayable",
      "type": "constructor"
    },
    {
      "anonymous": false,
      "inputs": [
        {
          "indexed": true,
          "internalType": "address",
          "name": "from",
          "type": "address"
        },
        {
          "indexed": true,
          "internalType": "address",
          "name": "to",
          "type": "address"
        },
        {
          "indexed": true,
          "internalType": "uint256",
          "name": "tokenId",
          "type": "uint256"
        }
      ],
      "name": "Transfer",
      "type": "event"
    },
    {
      "inputs": [
        {
          "internalType": "uint256",
          "name": "",
          "type": "uint256"
        }
      ],
      "name": "digiPets",
      "outputs": [
        {
          "internalType": "string",
          "name": "",
          "type": "string"
        }
      ],
      "stateMutability": "view",
      "type": "function",
      "constant": true
    },
    {
      "inputs": [],
      "name": "name",
      "outputs": [
        {
          "internalType": "string",
          "name": "",
          "type": "string"
        }
      ],
      "stateMutability": "view",
      "type": "function",
      "constant": true
    },
    {
      "inputs": [],
      "name": "symbol",
      "outputs": [
        {
          "internalType": "string",
          "name": "",
          "type": "string"
        }
      ],
      "stateMutability": "view",
      "type": "function",
      "constant": true
    },
    {
      "inputs": [
        {
          "internalType": "address",
          "name": "_owner",
          "type": "address"
        }
      ],
      "name": "balanceOf",
      "outputs": [
        {
          "internalType": "uint256",
          "name": "",
          "type": "uint256"
        }
      ],
      "stateMutability": "view",
      "type": "function",
      "constant": true
    },
    {
      "inputs": [
        {
          "internalType": "uint256",
          "name": "_tokenId",
          "type": "uint256"
        }
      ],
      "name": "ownerOf",
      "outputs": [
        {
          "internalType": "address",
          "name": "",
          "type": "address"
        }
      ],
      "stateMutability": "view",
      "type": "function",
      "constant": true
    },
    {
      "inputs": [
        {
          "internalType": "string",
          "name": "_digiPet",
          "type": "string"
        }
      ],
      "name": "mint",
      "outputs": [],
      "stateMutability": "nonpayable",
      "type": "function"
    }
  ],
  "bytecode": "0x60806040523480156200001157600080fd5b506040518060400160405280600881526020017f44696769706574730000000000000000000000000000000000000000000000008152506040518060400160405280600381526020017f44475000000000000000000000000000000000000000000000000000000000008152508181816000908051906020019062000098929190620000bc565b508060019080519060200190620000b1929190620000bc565b5050505050620001d1565b828054620000ca906200016c565b90600052602060002090601f016020900481019282620000ee57600085556200013a565b82601f106200010957805160ff19168380011785556200013a565b828001600101855582156200013a579182015b82811115620001395782518255916020019190600101906200011c565b5b5090506200014991906200014d565b5090565b5b80821115620001685760008160009055506001016200014e565b5090565b600060028204905060018216806200018557607f821691505b602082108114156200019c576200019b620001a2565b5b50919050565b7f4e487b7100000000000000000000000000000000000000000000000000000000600052602260045260246000fd5b610f5f80620001e16000396000f3fe608060405234801561001057600080fd5b506004361061007f576000357c01000000000000000000000000000000000000000000000000000000009004806306fdde03146100845780636352211e146100a257806370a08231146100d257806395d89b4114610102578063d85d3d2714610120578063fe85585a1461013c575b600080fd5b61008c61016c565b6040516100999190610beb565b60405180910390f35b6100bc60048036038101906100b791906109bc565b6101fe565b6040516100c99190610bd0565b60405180910390f35b6100ec60048036038101906100e79190610952565b6102b0565b6040516100f99190610c8d565b60405180910390f35b61010a610368565b6040516101179190610beb565b60405180910390f35b61013a6004803603810190610135919061097b565b6103fa565b005b610156600480360381019061015191906109bc565b6104fd565b6040516101639190610beb565b60405180910390f35b60606000805461017b90610de2565b80601f01602080910402602001604051908101604052809291908181526020018280546101a790610de2565b80156101f45780601f106101c9576101008083540402835291602001916101f4565b820191906000526020600020905b8154815290600101906020018083116101d757829003601f168201915b5050505050905090565b6000806002600084815260200190815260200160002060009054906101000a900473ffffffffffffffffffffffffffffffffffffffff169050600073ffffffffffffffffffffffffffffffffffffffff168173ffffffffffffffffffffffffffffffffffffffff1614156102a7576040517f08c379a000000000000000000000000000000000000000000000000000000000815260040161029e90610c6d565b60405180910390fd5b80915050919050565b60008073ffffffffffffffffffffffffffffffffffffffff168273ffffffffffffffffffffffffffffffffffffffff161415610321576040517f08c379a000000000000000000000000000000000000000000000000000000000815260040161031890610c6d565b60405180910390fd5b600360008373ffffffffffffffffffffffffffffffffffffffff1673ffffffffffffffffffffffffffffffffffffffff168152602001908152602001600020549050919050565b60606001805461037790610de2565b80601f01602080910402602001604051908101604052809291908181526020018280546103a390610de2565b80156103f05780601f106103c5576101008083540402835291602001916103f0565b820191906000526020600020905b8154815290600101906020018083116103d357829003601f168201915b5050505050905090565b60058160405161040a9190610bb9565b908152602001604051809103902060009054906101000a900460ff1615610466576040517f08c379a000000000000000000000000000000000000000000000000000000000815260040161045d90610c0d565b60405180910390fd5b6004819080600181540180825580915050600190039060005260206000200160009091909190915090805190602001906104a192919061081d565b50600060016004805490506104b69190610d30565b90506104c233826105a9565b60016005836040516104d49190610bb9565b908152602001604051809103902060006101000a81548160ff0219169083151502179055505050565b6004818154811061050d57600080fd5b90600052602060002001600091509050805461052890610de2565b80601f016020809104026020016040519081016040528092919081815260200182805461055490610de2565b80156105a15780601f10610576576101008083540402835291602001916105a1565b820191906000526020600020905b81548152906001019060200180831161058457829003601f168201915b505050505081565b600073ffffffffffffffffffffffffffffffffffffffff168273ffffffffffffffffffffffffffffffffffffffff161415610619576040517f08c379a000000000000000000000000000000000000000000000000000000000815260040161061090610c4d565b60405180910390fd5b610622816107ab565b15610662576040517f08c379a000000000000000000000000000000000000000000000000000000000815260040161065990610c2d565b60405180910390fd5b816002600083815260200190815260200160002060006101000a81548173ffffffffffffffffffffffffffffffffffffffff021916908373ffffffffffffffffffffffffffffffffffffffff160217905550600360008373ffffffffffffffffffffffffffffffffffffffff1673ffffffffffffffffffffffffffffffffffffffff168152602001908152602001600020600081548092919061070490610e14565b91905055600360008473ffffffffffffffffffffffffffffffffffffffff1673ffffffffffffffffffffffffffffffffffffffff16815260200190815260200160002081905550808273ffffffffffffffffffffffffffffffffffffffff16600073ffffffffffffffffffffffffffffffffffffffff167fddf252ad1be2c89b69c2b068fc378daa952ba7f163c4a11628f55a4df523b3ef60405160405180910390a45050565b6000806002600084815260200190815260200160002060009054906101000a900473ffffffffffffffffffffffffffffffffffffffff169050600073ffffffffffffffffffffffffffffffffffffffff168173ffffffffffffffffffffffffffffffffffffffff161415915050919050565b82805461082990610de2565b90600052602060002090601f01602090048101928261084b5760008555610892565b82601f1061086457805160ff1916838001178555610892565b82800160010185558215610892579182015b82811115610891578251825591602001919060010190610876565b5b50905061089f91906108a3565b5090565b5b808211156108bc5760008160009055506001016108a4565b5090565b60006108d36108ce84610cd9565b610ca8565b9050828152602081018484840111156108eb57600080fd5b6108f6848285610da0565b509392505050565b60008135905061090d81610efb565b92915050565b600082601f83011261092457600080fd5b81356109348482602086016108c0565b91505092915050565b60008135905061094c81610f12565b92915050565b60006020828403121561096457600080fd5b6000610972848285016108fe565b91505092915050565b60006020828403121561098d57600080fd5b600082013567ffffffffffffffff8111156109a757600080fd5b6109b384828501610913565b91505092915050565b6000602082840312156109ce57600080fd5b60006109dc8482850161093d565b91505092915050565b6109ee81610d64565b82525050565b60006109ff82610d09565b610a098185610d14565b9350610a19818560208601610daf565b610a2281610eea565b840191505092915050565b6000610a3882610d09565b610a428185610d25565b9350610a52818560208601610daf565b80840191505092915050565b6000610a6b602283610d14565b91507f446967697470657420697320616c726561647920657869737420696e2073746f60008301527f72650000000000000000000000000000000000000000000000000000000000006020830152604082019050919050565b6000610ad1601483610d14565b91507f546f6b656e20616c7265616479206578697374730000000000000000000000006000830152602082019050919050565b6000610b11601b83610d14565b91507f4d696e74696e6720746f20746865207a65726f206164647265737300000000006000830152602082019050919050565b6000610b51602383610d14565b91507f4e6f204e4654206173736f6369617465642077697468207a65726f206164647260008301527f65737300000000000000000000000000000000000000000000000000000000006020830152604082019050919050565b610bb381610d96565b82525050565b6000610bc58284610a2d565b915081905092915050565b6000602082019050610be560008301846109e5565b92915050565b60006020820190508181036000830152610c0581846109f4565b905092915050565b60006020820190508181036000830152610c2681610a5e565b9050919050565b60006020820190508181036000830152610c4681610ac4565b9050919050565b60006020820190508181036000830152610c6681610b04565b9050919050565b60006020820190508181036000830152610c8681610b44565b9050919050565b6000602082019050610ca26000830184610baa565b92915050565b6000604051905081810181811067ffffffffffffffff82111715610ccf57610cce610ebb565b5b8060405250919050565b600067ffffffffffffffff821115610cf457610cf3610ebb565b5b601f19601f8301169050602081019050919050565b600081519050919050565b600082825260208201905092915050565b600081905092915050565b6000610d3b82610d96565b9150610d4683610d96565b925082821015610d5957610d58610e5d565b5b828203905092915050565b6000610d6f82610d76565b9050919050565b600073ffffffffffffffffffffffffffffffffffffffff82169050919050565b6000819050919050565b82818337600083830152505050565b60005b83811015610dcd578082015181840152602081019050610db2565b83811115610ddc576000848401525b50505050565b60006002820490506001821680610dfa57607f821691505b60208210811415610e0e57610e0d610e8c565b5b50919050565b6000610e1f82610d96565b91507fffffffffffffffffffffffffffffffffffffffffffffffffffffffffffffffff821415610e5257610e51610e5d565b5b600182019050919050565b7f4e487b7100000000000000000000000000000000000000000000000000000000600052601160045260246000fd5b7f4e487b7100000000000000000000000000000000000000000000000000000000600052602260045260246000fd5b7f4e487b7100000000000000000000000000000000000000000000000000000000600052604160045260246000fd5b6000601f19601f8301169050919050565b610f0481610d64565b8114610f0f57600080fd5b50565b610f1b81610d96565b8114610f2657600080fd5b5056fea26469706673582212205461f80dfb339eddb99578d1cf916ad1a0c2746e0d1fb9aebc6a9ffadff1772e64736f6c63430008000033",
  "immutableReferences": {},
  "source": "// SPDX-License-Identifier: MIT\r\npragma solidity ^0.8.0;\r\n\r\nimport \"./CustomERC721/ERC721Connector.sol\";\r\n\r\ncontract DigiPets is ERC721Connector {\r\n\r\n    // String array to store our digital pets\r\n    string [] public digiPets;\r\n\r\n    // mapping to store digitPets exitance\r\n    mapping(string => bool) _digitPetsExist;\r\n    \r\n    constructor() ERC721Connector(\"Digipets\", \"DGP\"){\r\n       \r\n    }\r\n\r\n    //  Count all the NFT related to particular owner address\r\n    function balanceOf(address _owner) public view returns(uint256){\r\n       require(_owner != address(0), \"No NFT associated with zero address\");\r\n       return _ownedTokenCount[_owner];\r\n    }\r\n\r\n    //  Owner of particular NFT by token\r\n    function ownerOf(uint256 _tokenId) public view returns(address){\r\n        address owner = _tokenOwner[_tokenId];\r\n        require(owner != address(0), \"No NFT associated with zero address\");\r\n        return owner;\r\n    }\r\n\r\n    function mint(string memory _digiPet) public {\r\n        // * Check digitPet is already exists or not\r\n        require(!_digitPetsExist[_digiPet], \"Digitpet is already exist in store\");\r\n\r\n        digiPets.push(_digiPet);\r\n        uint id = digiPets.length - 1;\r\n        \r\n        _mint(msg.sender, id); \r\n\r\n        _digitPetsExist[_digiPet] = true;\r\n    }\r\n}",
  "sourcePath": "D:\\projects\\etherium\\NFC\\nft-forest\\contracts\\DigiPets.sol",
  "compiler": {
    "name": "solc",
    "version": "0.8.0+commit.c7dfd78e.Emscripten.clang"
  },
  "schemaVersion": "3.4.5",
  "updatedAt": "2022-04-12T11:05:49.638Z",
  "networkType": "ethereum",
  "devdoc": {
    "kind": "dev",
    "methods": {},
    "version": 1
  },
  "userdoc": {
    "kind": "user",
    "methods": {},
    "version": 1
  }
}